:020000040800F2
:10000000A00D01202902000877600008FD2E0008DD
:1000100075600008B10F000871660008000000005C
:10002000000000000000000000000000C1620008A5
:100030000513000800000000BF6200085D630008AF
:10004000430200084302000843020008430200087C
:10005000430200084302000843020008430200086C
:10006000071300080D1300081313000843020008CB
:10007000430200084302000843020008430200084C
:100080004912000843020008430200084302000826
:10009000430200084302000843020008430200082C
:1000A000430200084302000843020008430200081C
:1000B000430200084302000843020008430200080C
:1000C00043020008430200084302000843020008FC
:1000D00043020008430200084302000843020008EC
:1000E00043020008430200084302000843020008DC
:1000F00043020008430200084302000843020008CC
:1001000043020008430200084302000843020008BB
:100110004302000843020008056400084302000887
:100120005512000843020008430200084302000879
:10013000430200084302000843020008430200088B
:10014000430200084302000843020008430200087B
:10015000430200084302000843020008430200086B
:10016000430200084302000843020008430200085B
:100170004302000843020008430200080000000098
:10018000430200084302000800F002F800F03CF8C7
:100190000AA090E8000C82448344AAF10107DA45E2
:1001A00001D100F031F8AFF2090EBAE80F0013F0F8
:1001B000010F18BFFB1A43F00103184774450100F3
:1001C00094450100103A24BF78C878C1FAD8520784
:1001D00024BF30C830C144BF04680C6070470000C1
:1001E0000023002400250026103A28BF78C1FBD840
:1001F000520728BF30C148BF0B6070471FB507F0DA
:100200009CFA1FBD10B510BD00F0E2F81146FFF7D3
:10021000F5FF06F0BBFC00F000F903B4FFF7F2FFB6
:1002200003BC00F003F90000094880470948004773
:10023000FEE7FEE7FEE7FEE7FEE7FEE7FEE7FEE796
:10024000FEE7FEE704480549054A064B70470000F3
:10025000F563000889010008A0070120A00D012016
:10026000A0090120A009012053EA020C00F06980D6
:100270002DE9F04B4FF00006002B1FBFB3FA83F5BA
:1002800003FA05F424FA05F65E4012BF1643B2FAEB
:1002900082F502FA05F4C5F120051EBF22FA05FC1D
:1002A00044EA0C04203556EA044C4FEA144418BFC3
:1002B000641C4FF000084FF00009904271EB030CF2
:1002C00039D3002919BFB1FA81F701FA07F6B0FA5C
:1002D00080F700FA07F6C7F120071EBF20FA07FCD7
:1002E00046EA0C062037B6FBF4FCA7EB0507103FE7
:1002F00007F01F0BCBF120060CFA0BFB2CFA06F6CD
:1003000044BFB3460026202FA4BF5E464FF0000B2B
:100310005BEA060C08BF4FF0010B19EB0B09ABFBB6
:10032000027C48EB0608C01B06FB02CC0BFB03CC8F
:1003300071EB0C01C1E70B46024641464846BDE859
:10034000F08B13B54FF000004FF00001AFF30080C9
:10035000BDE81C4070474FF0000200B513469446BC
:100360009646203922BFA0E80C50A0E80C50B1F10D
:100370002001BFF4F7AF090728BFA0E80C5048BF21
:100380000CC05DF804EB890028BF40F8042B08BFBF
:10039000704748BF20F8022B11F0804F18BF00F8BB
:1003A000012B704770477047704710B500F008F890
:1003B000006810BD10B5044600F002F8046010BDDE
:1003C000004870473C070120004870473C07012067
:1003D0007546FFF7F9FFAE4605006946534620F023
:1003E0000700854618B020B5FFF72CFFBDE8204078
:1003F0004FF000064FF000074FF000084FF0000BE1
:1004000021F00701AC46ACE8C009ACE8C009ACE893
:10041000C009ACE8C0098D46704710B50446AFF37B
:1004200000802046BDE81040FFF7F7BE01491820C4
:10043000ABBEFEE726000200704700002DE9F04F3A
:1004400081B001266FF001044FEA510E06EB51070F
:1004500004EB51084FEA420900240025009700BF31
:10046000AEB2B4424FEA44052BD250F8361050F8E1
:100470002570F20040F8251045F00101043240F8E3
:100480003670875850F821A040F8217040F802A03B
:10049000009AA118324450F831B050F832704FEA47
:1004A000C10A4FEAC20C40F8317040F832B00AF18C
:1004B00004010CF10402875850F801C0475040F87D
:1004C00002C006EB0E0100EB850650F83170D6E94C
:1004D000025A4FEAC10CB7600CF1040740F83150E2
:1004E000A11CC2591D888CB244454B44F26040F8AF
:1004F00007A0B5D901B0BDE8F08F70B5044680788B
:1005000025886268A38901280E4606D194ED040A65
:100510003046294600F0B4FA03E03046294600F0A0
:1005200001F9E078012818BF70BD2188E289A3682D
:100530003046BDE87040FFF781BF00004CF2307CD0
:1005400082704BF63072C0F6000CC370C0F6000229
:10055000FF294FF0FF030180C0F804C00DDDB1F5A5
:10056000807F13D0B1F5805F15D0B1F5806F22D1B7
:100570009FED160A0632042117E010290FD04029FA
:1005800019D19FED100A7E3240210EE09FED0E0A38
:100590001E32102109E09FED090A012105E09FEDBF
:1005A000080A02F5FF724FF4807100238181C18136
:1005B000826080ED040A58B2704700BF00008039A5
:1005C0000000803D0000803C0000803B0000803A3D
:1005D0002DE9F04381B02DED028B0C4600219046B1
:1005E000B1EB920F054674D04FEA980795ED000ADB
:1005F00095ED011A20EE000A21EE011A30EE018A73
:10060000B0EE480A06F0DEF9B4EE400AF1EE10FA58
:1006100049D684ED000A95ED020A95ED031A20EE05
:10062000000A21EE011A30EE018AB0EE480A06F007
:10063000C9F9B4EE400AF1EE10FA39D684ED010A98
:1006400095ED040A95ED051A20EE000A21EE011A37
:1006500030EE018AB0EE480A06F0B4F9B4EE400A72
:10066000F1EE10FA29D684ED020A95ED060A95ED11
:10067000071A20EE000A21EE011A30EE018AB0EED0
:10068000480A05F1200904F1100606F09BF9B4EEC2
:10069000400AF1EE10FA15D684ED030A013F4D46EB
:1006A0003446A3D113E0B0EE480A06F08BF9B0E768
:1006B000B0EE480A06F086F9C0E7B0EE480A06F048
:1006C00081F9D0E7B0EE480A06F07CF9E4E7344659
:1006D0004D4618F0030620D095ED000A95ED011A5D
:1006E00020EE000A21EE011A30EE018AB0EE480A2F
:1006F000271D06F067F9B4EE400AF1EE10FA07D6AE
:1007000084ED000A013E05F108053C46E4D104E011
:10071000B0EE480A06F056F9F2E7BDEC028B01B0E4
:10072000BDE8F0832DE9F04F88B04FEA91094FEA18
:10073000091609EB490706964FEAC906FF00CDE9FD
:100740000462161D03EB43020797071D4FEA031AC5
:100750004FEAC30B4FEAC20C344632461D460393A0
:10076000CDF80090049B17ED010AFD18069B97ED4C
:10077000001A07EB030E079B15ED012A07EB030890
:1007800095ED003A1EED014A9EED005A18ED016A02
:1007900098ED007A70EE040A72EE061A71EE052AE0
:1007A00073EE073A32EE462A31EE451A30EEA15A80
:1007B00032EEA36A52ED014A30EE440A92ED004A4D
:1007C00033EE473A07ED015A87ED006A30EE035ADF
:1007D00031EE426A30EEE17A72EEE30A30EE430A1D
:1007E00031EE021A14ED012A94ED003A56ED011A89
:1007F000D6ED002A65EE023A26EE022A26EE036ABC
:1008000025EE033A27EE245A64EEA04A60EE840AED
:1008100027EE044A20EE217A61EE211A21EE221AF7
:1008200020EE220A33EE866A32EE432A35EE203A73
:1008300034EEC44A37EE011A31EEC00AB9F10109AB
:1008400007F1080752445C44664405ED013A85ED22
:10085000004A0EED016A8EED002A08ED011A88EDBE
:10086000000A7FF47FAF1429C0F0C180009D019081
:100870002A4600BF0492039AAB089200039292B2F8
:1008800007924FF0FF3202EB9502069203EB430210
:10089000D700DA00EE00141D4FEA031E4FF0000CE3
:1008A00002464FF0000902939046059A4FEAC903A9
:1008B00002EBC90090ED000A181D104490ED001ADB
:1008C00002EB09104FEA091390ED002A181D10449D
:1008D00090ED003A09EB490002EBC003C000043080
:1008E000104493ED004A90ED005A42464046E046DF
:1008F00000EB040A00EB0E0BC31990ED006A1AED31
:10090000017ADBED000AD3ED001A76EE602A36EEAE
:10091000206A77EE610A37EE217AD0ED011ADAED1E
:10092000003ADBED014AD3ED015A71EEE46A71EE53
:10093000A41A73EEE54A73EEA53A72EEA45A72EE6B
:10094000E42A76EEE04A76EEA00A76EE476A36EEC4
:10095000076A31EEE37A71EEA31A80ED006AC0ED0A
:10096000011A20EE256A61EE241A31EE866A60EEE5
:10097000241A61EE253A71EEE31A62EE263A63EE2E
:10098000074A73EEA43A22EE077A63EE264A37EE60
:10099000647A64EE224A65EE205A64EE200A65EE1F
:1009A000222AA84475EEA44A70EEE20A8845304433
:1009B0004AED013A8AED007A8BED006ACBED011A1F
:1009C000C3ED004AC3ED010A92D307980CF1010C64
:1009D00081440698083284457FF666AF0498132850
:1009E0004FEA90000246DDE901053FF643AF00996A
:1009F00090ED000A90ED011A90ED022A90ED033A75
:100A000090ED044A90ED055A90ED066A90ED077A54
:100A100070EE040A30EE440A31EE054A31EE451A12
:100A200032EE065A73EE071A32EE462A33EE473A92
:100A300030EE856A34EE217A30EEC55A34EE614AE2
:100A400070EE030A71EE421A30EE430A31EE021ADA
:100A500080ED006A80ED017A80ED025A80ED034A54
:100A6000C0ED040AC0ED051A80ED060A80ED071AF4
:100A7000013900F12000BBD108B0BDE8F08F0000C3
:100A80002DE9F04F88B04FEA91094FEA091609EBBA
:100A9000490706964FEAC906FF00CDE90462161D14
:100AA00003EB43020797071D4FEA031A4FEAC30BF4
:100AB0004FEAC20C344632461D460393CDF80090EF
:100AC000069B17ED011AFD18049B97ED002A07EB12
:100AD0000308079B15ED013A07EB030E95ED004A5D
:100AE00018ED015A98ED006A1EED017ADEED000A5C
:100AF00071EE031A75EE072A72EE043A76EE204A7A
:100B000035EE475A32EE442A36EE604A31EEA26A9A
:100B100033EEA47A52ED015A31EE431A92ED003AC7
:100B200007ED016A87ED007A31EE446A32EE057A0C
:100B300071EEE20A73EEE41A31EE041A32EE452A3F
:100B400014ED014A94ED005A56ED012AD6ED003A13
:100B500066EE044A27EE044A27EE057A26EE055A89
:100B600020EEA56A65EEA15A61EE831A20EE833A63
:100B700061EE220A62EE222A22EE232A21EE231AB5
:100B800034EEC77A34EE054A36EE615A35EE833AD2
:100B900030EEC22A32EE811AB9F1010907F10807D5
:100BA00052445C44664408ED015A88ED003A05ED74
:100BB000017A85ED004A0EED012A8EED001A7FF4D0
:100BC0007FAF1429C0F0C180009D01902A4600BF6C
:100BD0000492039AAB089200039292B207924FF0EC
:100BE000FF3202EB9502069203EB4302D700DA00D4
:100BF000EE00141D4FEA031E4FF0000C02464FF0AA
:100C0000000902939046059A4FEAC90302EBC90016
:100C100090ED001A181D104490ED002A02EB091007
:100C20004FEA091390ED003A181D104490ED004A68
:100C300009EB490002EBC003C0000430104493EDFF
:100C4000005A90ED006A42464046E04600EB040A36
:100C500000EB0E0BC31990ED007A5AED010ADBEDA3
:100C6000001AD3ED002A77EE613A37EE217A70EE62
:100C7000E21A70EEA20AD0ED012ADAED004ADBEDAD
:100C8000015AD3ED016A72EEE57A72EEA52A74EE8E
:100C9000E65A74EEA64A73EEE56A73EEA53A77EE6D
:100CA000A15A77EEE11A77EE607A37EE207A72EE8B
:100CB000E40A72EEA42A80ED007AC0ED012A21EE4A
:100CC000267A62EE252A37EE627A61EE252A62EEF6
:100CD000264A72EEA42A63EE274A64EE205A74EE86
:100CE000E54A63EE200A64EE275A75EEA00A65EE27
:100CF000235A66EE216A65EE211A66EE233AA8446D
:100D000075EEE65A71EEA31A884530444AED014A61
:100D1000CAED000A8BED007ACBED012AC3ED005A33
:100D2000C3ED011A92D307980CF1010C8144069887
:100D3000083284457FF666AF049813284FEA900086
:100D40000246DDE901053FF643AF009990ED001A38
:100D500090ED012A90ED023A90ED034A90ED045A8D
:100D600090ED056A90ED067AD0ED070A71EE051A4E
:100D700031EE451A32EE065A32EE462A33EE076A53
:100D800074EE202A33EE473A34EE604A31EE867A2A
:100D900075EE220A31EEC66A35EE625A71EE441AD9
:100DA00072EE032A31EE041A32EE432A27EE003A9D
:100DB00020EE804A26EE006A25EE005A21EE807A67
:100DC00062EE800A21EE001A22EE002A80ED003A3F
:100DD00080ED014A80ED026A80ED035A80ED047ACD
:100DE000C0ED050A80ED061A80ED072A013900F1F1
:100DF0002000ABD108B0BDE8F08F10B50146806B84
:100E0000026C12F0500F05D0026CD20626D500F00D
:100E1000C8FC10BD016C41F40071016401688A686E
:100E200012F0405F17D1027EAAB9CA6A12F4700F9D
:100E300002D08A6852050ED44A6822F020024A6025
:100E4000016C21F480710164016CC90403D4016C4C
:100E500041F00101016400F08BFC10BD806BC26C9D
:100E6000BDE810400846104710B5806B4021016472
:100E7000416C41F00401416400F093FC10BD10B5D9
:100E8000806B00F08DFC10BD464910B54A6822F415
:100E900040324A604A6843681A434A6001684A68B7
:100EA00022F480724A6001684A68036942EA0322B8
:100EB0004A6001684A6822F040724A6001684A68E4
:100EC00083681A434A6001688A6822F400628A6073
:100ED00001688A68C3681A438A60816A6FF0706229
:100EE000D14201688A6822F070628A6001688A686B
:100EF0000CD0836A1A438A6001688A6822F04052E3
:100F00008A6001688A68C36A1A4301E022F040528D
:100F10008A6001688A6822F002028A6001688A6831
:100F2000037E42EA43028A6090F82010002901689B
:100F30004A680FD042F400624A6001684A6822F4AD
:100F400060424A6001684A68174C436A04EB4333C5
:100F50001A4301E022F400624A600168CA6A22F47E
:100F60007002CA620168CA6A838B104C04EB035397
:100F70001A43CA6201688A6822F400728A600168B2
:100F80008A6890F8303042EA43228A6001688A68B1
:100F900022F480628A6001688A68406942EA80209F
:100FA000886010BD0023014000E0FFFF0000F0FF5B
:100FB000FEE700002DE9F04706462DED048B914633
:100FC0000C46DDE90E7ADDF840809DED0D9A00209B
:100FD0009FED638A0C9D0CE036F8101000EE101A9D
:100FE00004EBC001401CB8EE400A81ED000A81ED1F
:100FF000018AA842F0D321461846FFF77EFA2A4616
:1010000049462046FFF7E4FA0024F0EE488A012022
:101010000DE000BF09EB800191ED000AB4EEE80A93
:10102000F1EE10FA02DDF0EE408A0446401CB0EB0F
:10103000550FEFD300EE104AF8EE490AB8EE400A19
:1010400020EE201A00EE105AB8EE400AC1EE000A57
:101050009FED449A80EE890A10EE100A06F0FCFA21
:1010600041EC100B05F028FB9FED3F1B51EC100BE2
:1010700053EC112B06F078F805F014FF3C4938606A
:10108000884201DA87ED009A3A493868884203DDE0
:101090009FED390A87ED000A31880123084608E0F0
:1010A00036F813208A4200D91146824200D21046F7
:1010B0005B1CAB42F4D3081A80B200EE100ADFEDDD
:1010C0002F0A0021B8EE400A0A46032020EE200A2B
:1010D000DFED2B0A80EE201A9FED2A0AF0EE480A77
:1010E00068EE801AB0EE600A8AED001A88F80010E7
:1010F00000FB04F6B6EB550F20D2B0EE608A4FF03D
:10110000FF317318B3EB550F0AD209EB830393ED4C
:10111000001AB4EEC81AF1EE10FA01DDB0EE418A01
:10112000491C0129EDDDB4EEE18AF1EE10FA02DD91
:1011300030EE080A521C801C0528D9DD012A0BDB81
:10114000C0EE280A104910EE900A884201DD012104
:1011500000E0022188F80010BDEC048BBDE8F087A8
:10116000000000000000C8420000000000005940DC
:101170000000C8420050C3470050C34733335340B8
:1011800000F07F458FC2F53CCDCC4C3EF0B5002140
:101190004FF49B75059E21E001EB8104B4FBF3F74E
:1011A00003FB1744A4B2A42730F81440A4F500644C
:1011B0007C43E71704EB1754E427A7EB2434A4B2CD
:1011C00022F81140922C03D2922422F8114003E01D
:1011D000AC4201D922F81150491C89B2B142DBD38B
:1011E000F0BD10B5846B204600F027FC0120207173
:1011F00010BD10B5846B204600F0F4FB0120207177
:1012000010BD10B5846B206940F0040020612046B9
:1012100000F016FC0120207110BD10B5846B206910
:1012200040F004002061204600F0DFFB0120207127
:1012300010BD10B5806B00F001FC10BD10B5806BC7
:1012400000F0D1FB10BD0000014800F07DBD0000A2
:101250000C050120014800F077BD00009804012032
:1012600001681823CAB2103AB2FBF3F2054B6FF3D0
:101270000901032A9B5CC36500D9091D81650846E5
:1012800070470000B077000810B5014600208B6958
:101290008A6A4FF0C07453B1B3F5005F15D072B1D4
:1012A000012A0CD0022A0AD0032A09D104E01AB17B
:1012B000012A06D0022A03D1C96AC90100D501203A
:1012C00010BDC96AA142FAD010BD002AF7D0012A88
:1012D000F2D0022AF3D0032AF3D010BD30B504684F
:1012E000256825F480252560046863608368402BA9
:1012F000036803D099600068C26030BD9A600068DE
:10130000C16030BD7047042000F010BF082000F01D
:101310000DBF102000F00ABF72B6FEE730B5B3F57E
:10132000804F05D06FF0704140F82210002030BD92
:101330008C690B688D6823434C688989240144EAD1
:101340000524234343EA014150F82230014C234055
:101350001943E9E70000F0CF10B50A6850F82230D1
:1013600023F0010340F822308C68082C23D000239E
:101370004A682243CC681C430B6922431A434B69D9
:101380000E4C1A43CB691A430B6A1A434B6A1A4331
:101390008B6A1A43CB6A1A430B6B1A438B6913434C
:1013A000CA6B09681A4350F82130A343134340F82D
:1013B0002130002010BD4023DAE700007FFF0F003E
:1013C00030B5D1E9003443EA04138C688D892402D6
:1013D00044EA054423430C8A094D00EB820005EBE7
:1013E000045423430C7D6D0105EB04648969234398
:1013F0000B43416801F040410B434360002030BD86
:101400000000F0FF70B5234E234D00242DED068B18
:101410009FED1A9ADFED1A8A9FED1A8ADFED1A9A6C
:101420009FED1AAADFED1AAA00EE104AB8EEC00A24
:1014300060EE290A80EE8A0A05F0FCF928EE000A1F
:1014400008EEAA0A05F0A8F9B5EEC00AF1EE10FA06
:1014500002D29FED120A05E010EE100AB04201DD43
:10146000B0EE490ABCEEC00A10EE100A25F81400CE
:10147000641C642CD8DBBDEC068B70BD00F07F458E
:10148000171D9B441CD61E44DB0FC9400000C842F8
:101490003333D33F00F07F4554E0002000000000CC
:1014A00070B5284E284D00242DED068B9FED1F9A18
:1014B000DFED1F8A9FED1F8ADFED1F9A9FED1FAAA8
:1014C000DFED1FAA00EE104AB8EEC00A60EE290A4E
:1014D00080EE8A0A05F0AEF9B5EEC00AF1EE10FA18
:1014E00002DBB7EE000A01E0BFEE000A28EE000AB8
:1014F00008EEAA0A05F050F9B5EEC00AF1EE10FAAE
:1015000002D29FED120A05E010EE100AB04201DD92
:10151000B0EE490ABCEEC00A10EE100A25F814001D
:10152000641C642CCEDBBDEC068B70BD00F07F45E7
:10153000171D9B441CD61E44DB0FC9400000C84247
:101540003333D33F00F07F451CE100200000000052
:101550002DE9F041304E314D00242DED088B4FF038
:101560007A57B1EE008A9FED26AADFED269A9FED0D
:10157000269ADFED268ADFED26AA9FED26BA00BF68
:1015800000EE104AB8EEC00A20EE280AC0EE2A0A81
:1015900080EEA80A10EE100AB84202DA60EE080ADD
:1015A0000DE010EE100AB0F17D5F04DAF0EE000AF3
:1015B00040EE480A03E0F9EE000A40EE080A29EE80
:1015C000200A09EE8B0A05F0E7F8B5EEC00AF1EE45
:1015D00010FA02D29FED120A05E010EE100AB04296
:1015E00001DDB0EE4A0ABCEEC00A10EE100A25F882
:1015F0001400641C642CC3DBBDEC088BBDE8F081D7
:1016000000F07F45171D9B441CD61E44DB0FC940CC
:101610000000C8423333D33F00F07F45E4E10020AF
:101620000000000078B50024009490F83C20012AC6
:1016300019D0012280F83C200A6807230568092A8E
:1016400013D9EE680A3A02EB420293409E43EE60E1
:101650000B788A680A3B03EB43039A400368DD6812
:101660002A43DA6010E0022078BD2E6902EB4202C4
:1016700093409E432E610B788A6803EB43039A40A4
:1016800003681D692A431A614A681F23072A13D277
:1016900005686E6B521E02EB820293409E436E639E
:1016A0000B790A885B1E92B203EB83039A400368AE
:1016B0005D6B2A435A6327E005680D2A12D22E6B10
:1016C000D21F02EB820293409E432E630B790A885D
:1016D000DB1F92B203EB83039A4003681D6B2A431E
:1016E0001A6311E0EE6A0D3A02EB820293409E43C8
:1016F000EE620B790A880D3B92B203EB83039A40AA
:101700000368DD6A2A43DA62164B0568144A9D4273
:1017100006D10D68122D03D1556845F4800555603A
:1017200005689D4218D10B68102B01D0112B13D1E5
:10173000536843F400035360096810290CD10A4927
:101740000A4A0968B1FBF2F101EB8101490000E0AE
:10175000491E00910029FBD180F83C40002078BD53
:1017600000230140002001403400002040420F00CF
:1017700010B50068084988420CD1084C2069401C0B
:101780002061642804D300F0DBFD6061002020614B
:101790000120207110BD0000002001400000002049
:1017A0007047704770B504004FF0000503D0206CFF
:1017B000002610B107E0012070BD204600F01CF8A3
:1017C000666484F83C60206CC00610D4206C20F461
:1017D000885040F0020020642046FFF755FB666405
:1017E000206C20F0020040F00100206400E00125A0
:1017F00084F83C60284670BD70B586B0064614215A
:101800006846FEF7A8FD1D493068884234D11C485F
:101810000025016841F480710160006800F4807067
:10182000059017481438016841F001010160006813
:10183000694600F001000590202000900320CDE9CA
:101840000105104800F07EFC104C0F48C4E900056B
:101850000015A560C4E90350400060618000A061EC
:101860004011C4E907052046656200F03DFB08B160
:10187000FFF752FDB463A66306B070BD00200140BF
:1018800044380240000002401064024098040120E5
:10189000F8B5044600200E46009094F83C1001294B
:1018A00007D0012184F83C1021688B68DB0702D047
:1018B00011E00220F8BD8B6843F001038B604049C2
:1018C000404B0968B1FBF3F101EB410100E0491E17
:1018D00000910029FBD121688B68DB0503D58B685B
:1018E00023F480738B6021688B68DB075DD0236CE9
:1018F00040F20165AB4343F48073236449684905B2
:1019000005D5216C21F4005141F480512164216CF2
:10191000C90404D5616C21F00601616400E06064D3
:1019200084F83C00A16B2948274DC863A16B284867
:101930000864A16B2748C86421686FF02200086022
:101940002068416841F0806141602068816841F40D
:10195000807181602168134632464C31A06B00F0E3
:101960002DFB68681C49C006206806D0884224D137
:10197000816811F0405F13D01FE08842F8D0174A09
:10198000904203D1D1F80423D206F1D0144A9042F8
:1019900013D1D1F8041301F01F011029E8D30CE092
:1019A000816841F08041816007E0206C40F01000C8
:1019B0002064606C40F0010060640020F8BD00000D
:1019C0003400002040420F0000230140FB0D0008BE
:1019D0007F0E0008690E0008002001400021014030
:1019E00000220140704770477047704770B500B3E0
:1019F000F9B14379012B1ED00126467102230371F0
:101A000005682C6802F0100340F6FE729A40944379
:101A1000D1E900210A439A4022432A6001680A68FA
:101A2000C0249C40A2430A6006710021417108460F
:101A300070BD012070BD022070BD704770477047B7
:101A400070472DE9F041044600680668456BB10413
:101A50004FF0040710D5A9040ED52771216941F074
:101A600001012161F90241632068016821F480517C
:101A700001602046FFF7E3FFB00014D5A80012D59F
:101A80002771206940F00200206121684FF000506A
:101A900048632068016821F0805101602046BDE85C
:101AA000F041FFF7A1BFBDE8F08170B5040003D09D
:101AB0002079002510B105E0012070BD6571204638
:101AC00000F008F80220207125610120207100201B
:101AD00070BD000070B586B0054614216846FEF75B
:101AE0003AFC2349286888423FD1224800260168F1
:101AF00041F000510160006800F0005005901D4861
:101B00001038016841F0010101600068694600F089
:101B100001000590102000900320CDE90106164831
:101B200000F010FB164C154820604FF060606060BC
:101B30004020C4E90206000120614000606180008D
:101B4000A0614011C4E907062046666200F0CCF9A6
:101B500008B1FFF7E1FBAC60002211463620A56317
:101B600000F05CFC362000F04BFC06B070BD0000BD
:101B7000007400404038024000000240886002408B
:101B80000C0501202DE9F0410400069817460D468A
:101B90001BD0617901291BD00126667102212171B8
:101BA000C5B1E2682949D163E26829491164E26854
:101BB0002849D16421680A6842F080520A6040B323
:101BC0002268042828D01C3227E00120BDE8F081DB
:101BD0000220FBE7A2682049D163A2681F49116473
:101BE000A2681F49D16421680A6842F480520A60E1
:101BF00020B12268042804D0103203E022680832A1
:101C000000E00C322068016841F400510160A068D6
:101C100009E02268143200E018322068016841F0BF
:101C200000510160E068394600F0C8F90021617197
:101C300020B1216941F004012161C7E721680A68E8
:101C400005F010039E4032430A60BFE7F31100081D
:101C50003D1200081B120008E311000833120008AF
:101C60000312000870B504001BD02068036801F05F
:101C700010024FF480559540AB4303602068036821
:101C8000012505FA02F29343036061B1E06800F0B8
:101C900012F82068016821F00051016025710020D0
:101CA00070BD012070BDA06800F005F820680168D3
:101CB00021F40051F1E72DE9F0410446876D00F071
:101CC0003FFB064694F835000025022806D0802008
:101CD000606584F834500120BDE8F0812068016817
:101CE00021F0160101602068416921F08001416105
:101CF000206C08B9A06C20B12068016821F00801AF
:101D000001602068016821F0010101600CE000F031
:101D100017FB801B052807D920206065032084F865
:101D2000350084F83450D7E720680068C007EED14A
:101D300094F85C103F208840B860012084F835009A
:101D400084F834500020C7E72DE9F84304464FF0EB
:101D50000009CDF8009063484FF41651A56D006856
:101D6000B0FBF1F72E6894F85C10082000FA01F13E
:101D700031420FD021680A6852070BD50A6822F059
:101D800004020A6094F85C108840A860606D40F01E
:101D90000100606594F85C104FF0010808FA01F04A
:101DA000304208D021684969090604D5A860606DF1
:101DB00040F00200606594F85C10042088403042D6
:101DC00008D021680968890704D5A860606D40F0D3
:101DD0000400606594F85C1010208840304218D0F0
:101DE00021680968090714D5A860206801684903BB
:101DF00004D50068000308D5A16C07E00168C90597
:101E000003D4016821F008010160216C09B120466A
:101E1000884794F85C1020208840304231D02168F7
:101E20000968C9062DD5A86094F8350005282068F2
:101E3000016806D0490347D5006800031DD4616CD2
:101E40001CE021F0160101602068416921F0800149
:101E50004161206C08B9A06C20B12068016821F0B4
:101E60000801016094F85C103F208840A86084F865
:101E7000358084F83490216D1FE0E16B09B1204674
:101E80008847606D00282BD0606DC00714D00520F6
:101E900084F835002068016821F001010160009894
:101EA000401C0090B84203D820680068C007F6D1F3
:101EB00084F8358084F83490E16C002910D001B0AA
:101EC0002046BDE8F04308470168C905D5D401683C
:101ED00021F01001016084F8358084F83490CCE75B
:101EE000BDE8F883340000202DE9F041044600F0FD
:101EF00027FA06465CB1022084F83500002584F8F4
:101F000034502068016821F0010101600DE00120DA
:101F1000BDE8F08100F014FA801B052805D92020C7
:101F20006065032084F83500F2E720680068C00788
:101F3000F0D12268116820480140D4E90103184318
:101F4000D4E903363343184363691843A36918433C
:101F5000E3691843236A18430843616A042903D1DB
:101F6000D4E90B1319430843106020684069666A7E
:101F700020F0070130460E43012704280CD1A06A47
:101F80000643E06A40B12046FFF77EF920B14020C9
:101F9000606584F83570BAE7206846612046FFF72F
:101FA0005FF994F85C203F2191408160656584F879
:101FB00035700020ACE700003F8010F02DE9F041C3
:101FC0000446866D90F83400002501280DD00120CC
:101FD00084F8340094F835700020012F07D084F87D
:101FE000340002252846BDE8F0810220FBE70227E5
:101FF00084F8357060652046FFF770F994F85C103E
:102000003F208840B0602068016841F016010160FF
:10201000206C20B12068016841F00801016020684F
:10202000016841F001010160DCE7000070B5044681
:1020300000F086F90546601C02D00448007804448C
:1020400000F07EF9401BA042FAD370BD28000020AA
:102050002DE9F04186B014216846FEF77CF920484E
:102060000168002939D1012101601E48002401685E
:1020700041F00101016000684FF4805800F0010058
:102080000C27CDF80080CDE90470032602250396C5
:10209000CDE901546946144800F054F84FF68070B9
:1020A000CDE9000502AA694682E8D0000F4800F099
:1020B00049F84CF23370CDE9000502AA694682E87E
:1020C000D0000B4800F03EF802AA694682E8D00032
:1020D000CDE90085074800F035F806B0BDE8F0818D
:1020E0002000002038380240001402400010024056
:1020F000000C02400018024010B5044600F020F920
:1021000009498A68821A322A0CD30122102C05D080
:10211000042C05D0082C05D1CA7002E04A7000E0FA
:102120008A70886010BD000000000020044910B5CE
:102130000A68024202D00860FFF7DEFF10BD00000F
:10214000143C01402DE9F84FDFF8BCA10022012525
:1021500003264FF00F090AF1040BAAF1040E00BF89
:102160000B6805FA02F42340A34270D10F7907F0FF
:102170000307012F01D0022F16D187684FEA4208CA
:1021800006FA08FC27EA0C07D1F80CC00CFA08FC88
:102190004CEA070CC0F808C04768A7430C79C4F3A1
:1021A000001494403C4344600C79E443A4070AD0F3
:1021B000C4684FEA420C06FA0CF7BC438F6807FA72
:1021C0000CF72743C7600C7904F00304022C12D1EA
:1021D000D40800EB840CDCF820405707FF0E09FA06
:1021E00007F824EA0804D1F8108008FA07F848EA4A
:1021F0000408CCF8208004684FEA420C06FA0CF779
:10220000BC430F7907F0030707FA0CF72743076071
:102210004C6814F4403F70D03C4C276847F480472A
:102220002760246822F0030704F480440094384CAB
:1022300007EB040CDCF8084897074FEA177809FA0F
:1022400008F7BC43334FB84202D1002724E054E0E2
:10225000314FB84201D101271EE0304FB84201D1C1
:10226000022719E02E4FB84201D1032714E02D4F69
:10227000B84201D104270FE02B4FB84201D1052706
:102280000AE02A4FB84201D1062705E0284FB8429C
:1022900001D1072700E0082707FA08F72743CCF801
:1022A0000878DAF800405746D1F804C09C435FEA4A
:1022B000CC2C00D51C433C60DBF800405F46D1F8D5
:1022C00004C09C435FEA8C2C00D51C433C60DEF8C4
:1022D00000407746D1F804C09C435FEA8C3C00D5AF
:1022E0001C433C60084F083F3C68D1F804C09C4345
:1022F0005FEACC3C00D51C433C60521C102AFFF422
:102300002FAFBDE8F88F0000083C01404438024080
:10231000003001400000024000040240000802407A
:10232000000C02400010024000140240001802405D
:10233000001C02400AB1816170470904FBE70000FC
:10234000014880687047000028000020024881682A
:102350000278114481607047280000200B4810B5B6
:10236000016841F400710160016841F4806101601D
:10237000016841F480710160032000F06FF80F20C4
:1023800000F006F800F024F8002010BD003C0240E8
:1023900070B50D4D04464FF47A712878B1FBF0F01A
:1023A0000A490968B1FBF0F000F03AFB48B9102C7B
:1023B00007D200222146501E00F030F800206C6049
:1023C00070BD012070BD00002800002034000020F6
:1023D0000A4808B5016841F480410160006800F4D2
:1023E000804000900548001F016841F08051016065
:1023F000006800F08050009008BD000044380240A2
:10240000002809DB00F01F020121914040098000F3
:1024100000F1E020C0F8001170470000F0B40E4B4E
:102420001B680C46C3F30223C3F10705042D00D932
:102430000425191D072901D2002300E0DB1E012617
:1024400006FA05F1491E214099409E40761E16402D
:102450003143F0BC04F020B90CED00E0064900F077
:10246000070208684FF6FF03184040EA0220034ABB
:1024700010430860704700000CED00E00000FA0512
:102480002DE9F0470E46050065D0DFF81481D8F835
:102490000000F7B200F00700B04207D288F80070E1
:1024A000D8F8000000F00700B04254D128683D4C35
:1024B000810712D5400703D5206840F4E050206022
:1024C0002878000703D5206840F460402060206829
:1024D000A96820F0F000084320602878C0072DD0BC
:1024E000304968680839012812D0022813D003281F
:1024F00011D00968890700292DDA216821F003012C
:1025000001432160FFF71CFF814641F2883A0EE04B
:1025100009688903EFE709688901ECE7FFF710FF15
:10252000A0EB0901514502D90320BDE8F0872068DE
:10253000696800F00C00B0EB810FEFD1D8F8001003
:10254000404601F00701B14207D90770006800F06A
:102550000700B04201D00120E7E72878400705D501
:102560002068E96820F4E0500843206028780007DC
:1025700006D52068296920F4604040EAC100206047
:1025800000F038F82168084AC1F30311515CC840D3
:102590000649086006480068FFF7FAFE0020C4E715
:1025A000003C024008380240B877000834000020A0
:1025B0002C0000200448054900680968044AC1F35A
:1025C0008221515CC8407047340000200838024026
:1025D000C87700080448054900680968044AC1F33F
:1025E0004231515CC8407047340000200838024036
:1025F000C8770008154810B5006810F00C021448A0
:1026000013D04110042A0FD0082A0ED10F4C241FDA
:102610002268236802F03F025B0207D52068C0F3FE
:102620008810A0FB010106E0084610BD2168C1F337
:102630008811A1FB00010023FDF716FE2168C1F3FC
:102640000141491C4900B0FBF1F010BD08380240BF
:102650000024F4002DE9F84F04006ED02078DFF854
:102660004C93C007A9F104054AD009F104000168A0
:10267000C1F38101012908D00068C0F3810002285C
:102680000AD1D9F80000400206D52868800337D562
:1026900060680028E1D033E06068B0F5803F10D07A
:1026A000B0F5A02F286810D020F48030286028686A
:1026B00020F4802028606068A8B1FFF741FE06463C
:1026C0000DE0286840F48030F4E740F48020286072
:1026D000F7E700BFFFF734FE801B642873D8286833
:1026E0008003F7D50CE0FFF72BFE064605E000BFA0
:1026F000FFF726FE801B6428F0D828688003F7D4F3
:102700002078DFF8AC8280074FF0000A3ED5A7485A
:10271000001D016811F00C0F08D00068C0F38100A3
:1027200002280BD1D9F80000400207D4286880079E
:1027300016D5E068012800D112E033E1E068B8B1B5
:102740000120C8F80000FFF7FBFD064605E000BFCA
:10275000FFF7F6FD801B0228C0D828688007F7D550
:102760002868216920F0F80040EAC10028600DE0E7
:10277000C8F800A0FFF7E4FD064604E0FFF7E0FD1F
:10278000801B02281FD828688007F7D4207800070C
:1027900022D5864F87486169703771B10121016088
:1027A000FFF7CEFD064604E0FFF7CAFD801B0228B6
:1027B00009D838688007F7D50EE0C0F800A0FFF709
:1027C000BFFD064605E082E0FFF7BAFD801B022848
:1027D0007DD838688007F7D42078400768D5DFF8BF
:1027E000CCB100270BF13C0BDBF80000C0000BD490
:1027F000DBF8001041F08051CBF80010DBF800004E
:10280000012700F0805000906B4E3068C00510D456
:10281000306840F480703060FFF792FD009005E072
:10282000FFF78EFD0099401A022850D83068C00585
:10283000F6D55E4EA0686C3601280FD005283068AA
:1028400010D020F001003060306820F004003060CB
:10285000A068B8B1FFF774FD00900FE0306840F059
:102860000100F4E740F004003060F7E7FFF768FD8F
:102870000099411A41F28830814266D83068800759
:10288000F4D50EE0FFF75CFD009007E0FFF758FD80
:102890000099411A41F28830814256D83068800749
:1028A000F4D42FB1DBF8001021F08051CBF80010E8
:1028B000A069C8B33D49091D0968C1F38101022916
:1028C0004AD00228504607D0C8F8600000E03CE03B
:1028D000FFF736FD04463BE04746C8F86000FFF7C7
:1028E0002FFD064605E000BFFFF72AFD801B0228EA
:1028F0002BD828688001F7D4D4E907010843A16ADE
:102900002E4A490802EB0141626A41EA82110843FA
:1029100094F82C1040EA0161C9F8001001203866D3
:10292000FFF70EFD044606E03EE000BFFFF708FD9E
:10293000001B022809D828688001F7D534E000BFC1
:10294000FFF7FEFC001B022802D90320BDE8F88F28
:1029500028688001F4D427E00128F7D0D9F80000D6
:10296000E26900F4800191421CD1226A00F03F012B
:10297000914217D147F6C071626A0140B1EB821FE4
:1029800010D1A26A4FF0FF3300F4403103EB520242
:10299000B1EB024F06D194F82C1000F07060B0EB50
:1029A000016F01D00120D1E70020CFE704380240B9
:1029B00000004742800E4742007000400000FFFFC9
:1029C00070B515460E46040003D094F8490010B1C6
:1029D00007E0012070BD002084F84800204600F088
:1029E0001DF804F108012068FEF7B6FC3146A26824
:1029F0002068FEF7E5FCD4E901022946236BFEF7C7
:102A00008DFC2168A06851F8202042F0010241F8B5
:102A10002020012084F84900002070BDFFF718BB7A
:102A200010B5401EB0F1807F01D3012010BD4FF0E2
:102A3000E02460610F21601703F02EFE0020A061EA
:102A400007202061002010BD7047704770B590F8D6
:102A50003C20012A32D0012480F83C40022280F838
:102A60003D2003685A689D6822F070060A68324368
:102A70005A60134B02689A4214D0B2F1804F11D0C1
:102A8000104B9A420ED0104B9A420BD00F4B9A42E9
:102A900008D00F4B9A4205D00E4B9A4202D00E4BF3
:102AA0009A4204D1496825F080031943916080F867
:102AB0003D40002180F83C10084670BD022070BDEA
:102AC000000001400004004000080040000C0040ED
:102AD00000040140004001400018004010B504000F
:102AE00003D094F83D0010B107E0012010BD002094
:102AF00084F83C00204600F01FF8022084F83D00D6
:102B0000211D206803F08CFC012084F8460084F825
:102B10003E0084F83F0084F8400084F8410084F8C7
:102B2000420084F8430084F8440084F8450084F8A7
:102B30003D00002010BD000008B5144A016814488B
:102B4000914208D1016841F002010160006800F083
:102B50000200009008BD0F4A914211D1016841F076
:102B6000100101600068002200F010000090114682
:102B70003620FFF753FCBDE808403620FFF740BC85
:102B800005488142E6D10248001DDBE70004004011
:102B900040380240001000400004014090F83D1011
:102BA000012901D001207047022180F83D10006802
:102BB0001149884214D0B0F1804F11D00F4988429A
:102BC0000ED00F4988420BD00E49884208D00E49DA
:102BD000884205D00D49884202D00D49884204D16F
:102BE000816801F00701062903D0016841F0010165
:102BF0000160002070470000000001400004004018
:102C000000080040000C004000040140004001406A
:102C10000018004070B5044690F83C0000250128DB
:102C200017D0012684F83C60022084F83D0020681B
:102C3000826822F0770222F47F428260086850287E
:102C400038D00DDC20284FD005DC90B3102811D1EE
:102C50004AE0022070BD302846D040280AD13BE02F
:102C600060282FD070280DD0B0F5805F03D0B0F56C
:102C7000005F12D0012584F83D60002084F83C00FC
:102C8000284670BDCB68D1E90121206803F034FCEF
:102C90002068816841F0770109E0CB68D1E9012122
:102CA000206803F029FC2068816841F4804181603C
:102CB000E1E719E0CA684968206803F02FFC502159
:102CC000206806E0CA684968206803F038FC602183
:102CD000206803F01BFCCEE7CA684968206803F04F
:102CE0001DFC40212068F4E7226801461046F0E709
:102CF00070472DE9F04104460068C66805694FF049
:102D00000007A90713D5B10711D5F91E01610120EC
:102D10002077206880698007204602D0FFF7E8FF0F
:102D200004E000F07EF8204600F07CF82777680782
:102D300016D5700714D521686FF0040008610220D1
:102D400020772068806910F4407F204602D0FFF78A
:102D5000CFFF04E000F065F8204600F063F8277725
:102D6000280715D5300713D521686FF008000861D2
:102D7000042020772068C0698007204602D0FFF732
:102D8000B7FF04E000F04DF8204600F04BF827773D
:102D9000E80616D5F00614D521686FF0100008611A
:102DA000082020772068C06910F4407F204602D0B8
:102DB000FFF79EFF04E000F034F8204600F032F800
:102DC0002777E80708D0F00706D021686FF00100E8
:102DD0000861204600F027F8280608D5300606D5F9
:102DE00021686FF0800008612046FFF72DFE68061D
:102DF00008D5700606D521686FF0400008612046AE
:102E000000F012F8A8060AD5B00608D521686FF0C0
:102E1000200008612046BDE8F041FFF716BEBDE87E
:102E2000F081704770477047704770B5040004D058
:102E300094F84100002510B106E0012070BD84F82F
:102E40004050204600F024F8242084F841002068F7
:102E5000C16821F40051C160204603F083FB206863
:102E6000016921F4904101612068416921F02A0142
:102E700041612068C16841F40051C160656420204F
:102E800084F8410084F842006563002070BD0000B2
:102E900010B586B0044614216846FDF75CFA144963
:102EA0002068884221D113480021026842F01002B4
:102EB0000260006800F0100005900E4814380268A7
:102EC00042F001020260006800F0010005904FF43A
:102ED000C06000900220CDE901010320039007208B
:102EE000049069460448FFF72DF906B010BD0000B4
:102EF000001001404438024000000240FEE700009C
:102F000070B50B490646002408884D882146454384
:102F1000204602F041FD02F0A9FEB0B24FF0D841C8
:102F200003E000BFA1F88000641CAC42FAD370BD7E
:102F30002C0701202DE9F04F2B492C260A468871D9
:102F400092884FF4305A4FF4285B4FF4487541F69D
:102F5000631E2B274FF02A0C4FF0F00845F2105952
:102F60004FF4A0744FF4F073B8B10C80A1F8028054
:102F70004A4532D1A1F808A0A1F80AB038028881E8
:102F80000D804B80A2F5A640103801D10B804C80FB
:102F9000BDE8F04F002002F03FBCA1F800804C805B
:102FA0004A4507D1A1F808A0A1F80AB04FF42C5067
:102FB000888105E072450E8105D14F81A1F80CC0D2
:102FC0000B804D8002E0A1F80AC08F81A2F5A640D7
:102FD0001038DDD10C804B80DAE70E81A1F80AC0F1
:102FE00072458F81CCD0CDE72C0701202DE9FE4F13
:102FF000161ACDE900104FF000085D1A47464FF051
:10300000FF30002E02DD4FF0010102E003D14FF04E
:1030100000018B4602E08346C6F10006002D02DD6A
:103020004FF0010002E003D14FF00000824602E0C1
:103030008246C5F10005AE4201DD344600E02C4673
:10304000601C4FF00009029018E0009881B20198CE
:1030500080B200F019F8B0442F44A04504DD019877
:10306000A8EB040858440190A74203DD00983F1BD9
:103070005044009009F101001FFA80F90299894536
:10308000E3DDBDE8FE8F000000B502F085FC02F034
:10309000EDFD03484FF0D8410088A1F8800000BD45
:1030A00038000020F0B51C4615460E4607460B4674
:1030B000FFF79CFF3A46234631461046FFF796FF3E
:1030C00023462A4619463846FFF790FF2A462346EC
:1030D0003146BDE8F0401046FFF788BF2DE9F041CA
:1030E0009046314A0D460446060A918810462F0A3A
:1030F0004089A1F5AA43103B0FD0A1F5C853633B0B
:1031000024D002F0A6FD304602F097FDE0B202F0B6
:1031100094FD908902F09DFD36E002F09AFD304664
:1031200002F08BFD5089401C80B202F092FDE0B2AB
:1031300002F083FD908902F08CFD384602F07DFD9F
:103140009089401C80B202F084FD20E0917919B989
:103150001188091B491E8CB202F07BFD260A3046FD
:1031600002F06BFDE0B202F068FD304602F065FD52
:10317000E0B202F062FD908902F06BFD384602F089
:103180005CFDE8B202F059FD384602F056FDE8B2A7
:1031900002F053FD4FF0D840118920F87E1FA0F8AF
:1031A0000280BDE8F08100002C0701202DE9F043EA
:1031B0008146A2EB09020798521C1F4695B20C46A5
:1031C00086B24FF0D84811E02146484602F0E4FBB1
:1031D00002F04CFD0020414604E000BFA1F88060F1
:1031E000401C80B2A842F9D3641CA4B2BC42EBD903
:1031F000BDE8F0832DE9F04FFD4895B0002401684B
:1032000041F002010160006810A900F0020007907F
:103210004FF4004010900120119012900320139061
:10322000F448FEF78FFFF448F4494FF0204AC0E914
:1032300000A10621C0E902141021C0E90441846103
:103240000902C461C0E909418900C0E90B41890153
:103250004463C0E90E410F20CDE909043C200B90E6
:103260000F940920CDE900040820029003946A46D7
:1032700009A90694E048FFF7A3FB322003F07CFC89
:10328000D32002F0E6FC02F095FADB4C5034A0802B
:1032900002F090FA2146888002F08CFA4FF6FF7B0C
:1032A00021460BEA0020888002F084FA214649F288
:1032B0004137898845F210380843214645F21056B7
:1032C000888041F6631947F28975B84275D00420A9
:1032D00002F0BFFC02F06EFAA08002F06BFAA08050
:1032E00002F068FA0BEA0020A08002F063FAA188DD
:1032F0000843A0F50541A08052397DD0A8425CD09A
:10330000D42002F0A6FC02F055FAA08002F052FA96
:10331000A08002F04FFA0BEA0020A08002F04AFAE7
:10332000A1880843A080404547D055214FF4704004
:1033300002F0A6FCAA214FF2010002F0A1FC5221EA
:103340004FF2020002F09CFC08214FF2030002F051
:1033500097FC01214FF2040002F092FC4FF445402B
:1033600002F077FC02F026FA0BEA0020A0804CF273
:10337000015002F06EFC02F01DFAA1880843A08003
:10338000052003F0F9FBA088B0F5004F7ED0B042D5
:1033900013D0A12002F05DFC02F00CFAA08002F034
:1033A00009FA0BEA0020A08002F004FAA188084381
:1033B000A0F5AE41A080613969D0A088B84267D13C
:1033C000CF2002F046FC002002F037FCC12002F0C2
:1033D00034FC302002F031FCED2002F03AFC642095
:1033E00002F02BFC032002F028FC122002F025FC46
:1033F000812002F022FC00E002E1E82002F029FC3A
:10340000852002F01AFC102002F017FC7A2002F04E
:1034100014FCCB2002F01DFC392002F00EFC2C2005
:1034200002F00BFC002002F008FC342002F005FC46
:10343000022002F002FCF72002F00BFC202002F038
:10344000FCFBEA2002F005FC002002F0F6FB002065
:1034500002F0F3FBC02002F0FCFB1B2002F0EDFBAE
:10346000C12002F0F6FB012002F0E7FBC52002F0CC
:10347000F0FB302002F0E1FB302002F0DEFBC72041
:1034800002F0E7FBB72002F0D8FB02E0BEE0B9E0B3
:10349000BFE0362002F0DDFB482002F0CEFB3A20F0
:1034A00002F0D7FB552002F0C8FBB12002F0D1FB9F
:1034B000002002F0C2FB1A2002F0BFFBB62002F08F
:1034C000C8FB0A2002F0B9FBA22002F0B6FBF220F2
:1034D00002F0BFFB002002F0B0FB262002F0B9FB97
:1034E000012002F0AAFBE02002F0B3FB0F2002F063
:1034F000A4FB2A2002F0A1FB282002F09EFB08205A
:1035000002F09BFB0E2002F098FB082002F095FBD6
:10351000542002F092FBA92002F08FFB432002F01E
:103520008CFB0A2002F089FB0F2002F086FB0020B2
:1035300002F083FB002002F080FB002002F07DFB04
:10354000002002F07AFBE12002F083FB002002F071
:1035500074FB152002F071FB172002F06EFB0720B0
:1035600002F06BFB112002F068FB062002F065FB05
:103570002B2002F062FB562002F05FFB3C2002F0A1
:103580005CFB052002F059FB102002F056FB0F20D7
:1035900002F053FB3F2002F050FB3F2002F04DFBB6
:1035A0000F2002F04AFB2B2002F053FB002002F018
:1035B00044FB002002F041FB012002F03EFB3F20D3
:1035C00002F03BFB2A2002F044FB002002F035FB16
:1035D000002002F032FB002002F02FFBEF2002F06F
:1035E0002CFB112002F035FB782003F0C5FAE3E054
:1035F0003038024000040240DC060120040100A033
:10360000A58008E0A4F8049001F0DCBFA68001F0DA
:1036100054B8A8427ED1112002F01BFB782003F0A1
:10362000ABFA362002F015FB002002F006FB3A2030
:1036300002F00FFB052002F000FBB22002F009FBB4
:103640000C2002F0FAFA0C2002F0F7FA002002F047
:10365000F4FA332002F0F1FA332002F0EEFAB72048
:1036600002F0F7FA352002F0E8FABB2002F0F1FA96
:10367000322002F0E2FAC02002F0EBFA0C2002F055
:10368000DCFAC22002F0E5FA012002F0D6FAC320EB
:1036900002F0DFFA102002F0D0FAC42002F0D9FACA
:1036A000202002F0CAFAC62002F0D3FA0F2002F05E
:1036B000C4FAD02002F0CDFAA42002F0BEFAA12074
:1036C00002F0BBFAE02002F0C4FAD02002F0B5FA12
:1036D000002002F0B2FA022002F0AFFA072002F056
:1036E000ACFA0A2002F0A9FA282002F0A6FA322049
:1036F00002F0A3FA442002F0A0FA422002F09DFA60
:10370000062002F09AFA0E2002F097FA122002F038
:1037100094FA00E053E0142002F08FFA172002F030
:103720008CFAE12002F095FAD02002F086FA00200F
:1037300002F083FA022002F080FA072002F07DFAFC
:103740000A2002F07AFA282002F077FA312002F0FB
:1037500074FA542002F071FA472002F06EFA0E203B
:1037600002F06BFA1C2002F068FA172002F065FAEA
:103770001B2002F062FA1E2002F05FFA2A2002F0FB
:1037800068FA002002F059FA002002F056FA0020F0
:1037900002F053FAEF2002F050FA2B2002F059FA0F
:1037A000002002F04AFA002002F047FA012002F05D
:1037B00044FA3F2002F041FA292001F0FEBE4045C4
:1037C0007ED1ED2002F045FA012002F036FAFE200B
:1037D00002F033FAEE2002F03CFADE2002F02DFA7D
:1037E000212002F02AFAF12002F033FA012002F03F
:1037F00024FADF2002F02DFA102002F01EFAC42075
:1038000002F027FA8F2002F018FAC62002F021FAFF
:10381000002002F012FAE22002F00FFAE22002F099
:103820000CFAE22002F009FABF2002F012FAAA20F4
:1038300002F003FAB02002F00CFA0D2002F0FDF9BC
:10384000002002F0FAF90D2002F0F7F9002002F052
:10385000F4F9112002F0F1F9002002F0EEF919203C
:1038600002F0EBF9002002F0E8F9212002F0E5F97E
:10387000002002F0E2F92D2002F0DFF9002002F032
:10388000DCF93D2002F0D9F9002002F0D6F95D20E4
:1038900002F0D3F9002002F0D0F95D2002F0CDF95A
:1038A000002002F0CAF9B12002F0D3F9802002F022
:1038B000C4F9002002F0C1F98B2002F0BEF900E04B
:1038C000FDE3002002F0B9F9962002F0B6F90020DD
:1038D00002F0B3F9B22002F0BCF9002002F0ADF919
:1038E000002002F0AAF9022002F0A7F9002002F05D
:1038F000A4F9032002F0A1F9002002F09EF9B32000
:1039000002F0A7F9002002F098F9002002F095F9E2
:10391000002002F092F9002002F08FF9002002F05E
:103920008CF9002002F089F9002002F086F90020CD
:1039300002F083F9002002F080F9002002F07DF906
:10394000002002F07AF9002002F077F9002002F05E
:1039500074F9002002F071F9002002F06EF90020E5
:1039600002F06BF9002002F068F9002002F065F91E
:10397000002002F062F9002002F05FF9002002F05E
:103980005CF9002002F059F9002002F056F90020FD
:1039900002F053F9B42002F05CF98B2002F04DF9EB
:1039A000002002F04AF9962002F047F9002002F0C8
:1039B00044F9A12002F041F9002002F03EF9B520BF
:1039C00002F047F9022002F038F9002002F035F940
:1039D000032002F032F9002002F02FF9042002F057
:1039E0002CF9002002F029F9B62002F032F900206B
:1039F00002F023F9002002F020F9B72002F029F9A3
:103A0000002002F01AF9002002F017F93F2002F01E
:103A100014F9002002F011F95E2002F00EF90020E6
:103A200002F00BF9642002F008F9002002F005F919
:103A30008C2002F002F9002002F0FFF8AC2002F026
:103A4000FCF8002002F0F9F8DC2002F0F6F8002083
:103A500002F0F3F8702002F0F0F8002002F0EDF828
:103A6000902002F0EAF8002002F0E7F8EB2002F0E4
:103A7000E4F8002002F0E1F8DC2002F0DEF800209B
:103A800002F0DBF8B82002F0E4F8002002F0D5F8EC
:103A9000002002F0D2F8002002F0CFF8002002F05F
:103AA000CCF8002002F0C9F8002002F0C6F800208F
:103AB00002F0C3F8002002F0C0F8BA2002F0C9F802
:103AC000242002F0BAF8002002F0B7F8002002F03B
:103AD000B4F8002002F0B1F8C12002F0BAF82020BA
:103AE00002F0ABF8002002F0A8F8542002F0A5F88C
:103AF000002002F0A2F8FF2002F09FF8002002F060
:103B00009CF8C22002F0A5F80A2002F096F80020E6
:103B100002F093F8042002F090F8002002F08DF8F3
:103B2000C32002F096F83C2002F087F8002002F053
:103B300084F83A2002F081F8002002F07EF8392063
:103B400002F07BF8002002F078F8372002F075F8D8
:103B5000002002F072F83C2002F06FF8002002F022
:103B60006CF8362002F069F8002002F066F8322086
:103B700002F063F8002002F060F82F2002F05DF8F8
:103B8000002002F05AF82C2002F057F8002002F032
:103B900054F8292002F051F8002002F04EF82620B7
:103BA00002F04BF8002002F048F8242002F045F81B
:103BB000002002F042F8242002F03FF8002002F03A
:103BC0003CF8232002F039F8002002F036F83C20BF
:103BD00002F033F8002002F030F8362002F02DF821
:103BE000002002F02AF8322002F027F8002002F02C
:103BF00024F82F2002F021F8002002F01EF82C20DB
:103C000002F01BF8002002F018F8292002F015F845
:103C1000002002F012F8262002F00FF8002002F037
:103C20000CF8242002F009F8002002F006F8242005
:103C300002F003F8002002F000F8232001F0FDFF5D
:103C4000002001F0FAFFC42002F003F8622001F026
:103C5000F4FF002001F0F1FF052001F0EEFF00204D
:103C600001F0EBFF842001F0E8FF002001F0E5FF08
:103C7000F02001F0E2FF002001F0DFFF182001F04A
:103C8000DCFF002001F0D9FFA42001F0D6FF0020C6
:103C900001F0D3FF182001F0D0FF002001F0CDFF8C
:103CA000502001F0CAFF002001F0C7FF0C2001F0F6
:103CB000C4FF002001F0C1FF172001F0BEFF00206B
:103CC00001F0BBFF952001F0B8FF002001F0B5FF27
:103CD000F32001F0B2FF002001F0AFFFE62001F079
:103CE000ACFF002001F0A9FFC52001F0B2FF322097
:103CF00001F0A3FF002001F0A0FF442001F09DFF90
:103D0000002001F09AFF652001F097FF002001F0EC
:103D100094FF762001F091FF002001F08EFF8820B3
:103D200001F08BFF002001F088FFC62001F091FF19
:103D3000202001F082FF002001F07FFF172001F01A
:103D40007CFF002001F079FF012001F076FF0020C8
:103D500001F073FFC72001F07CFF002001F06DFF30
:103D6000002001F06AFF002001F067FF002001F051
:103D700064FFC82001F06DFF002001F05EFF00200D
:103D800001F05BFF002001F058FF002001F055FF1B
:103D9000C92001F05EFF002001F04FFF002001F07C
:103DA0004CFF002001F049FF002001F046FF0020F9
:103DB00001F043FF002001F040FF002001F03DFF33
:103DC000002001F03AFF002001F037FF002001F051
:103DD00034FF002001F031FF002001F02EFF002011
:103DE00001F02BFF002001F028FF002001F025FF4B
:103DF000002001F022FFE02001F02BFF162001F04F
:103E00001CFF002001F019FF1C2001F016FF00200C
:103E100001F013FF212001F010FF002001F00DFF41
:103E2000362001F00AFF002001F007FF462001F0D4
:103E300004FF002001F001FF522001F0FEFE0020EF
:103E400001F0FBFE642001F0F8FE002001F0F5FE19
:103E50007A2001F0F2FE002001F0EFFE8B2001F04D
:103E6000ECFE002001F0E9FE992001F0E6FE0020C2
:103E700001F0E3FEA82001F0E0FE002001F0DDFEED
:103E8000B92001F0DAFE002001F0D7FEC42001F0D5
:103E9000D4FE002001F0D1FECA2001F0CEFE0020A9
:103EA00001F0CBFED22001F0C8FE002001F0C5FEDB
:103EB000D92001F0C2FE002001F0BFFEE02001F099
:103EC000BCFE002001F0B9FEF32001F0B6FE002098
:103ED00001F0B3FEE12001F0BCFE162001F0ADFEC2
:103EE000002001F0AAFE1C2001F0A7FE002001F036
:103EF000A4FE222001F0A1FE002001F09EFE36204B
:103F000001F09BFE002001F098FE452001F095FE97
:103F1000002001F092FE522001F08FFE002001F0FF
:103F20008CFE642001F089FE002001F086FE7A20DC
:103F300001F083FE002001F080FE8B2001F07DFE69
:103F4000002001F07AFE992001F077FE002001F0B8
:103F500074FEA82001F071FE002001F06EFEB92071
:103F600001F06BFE002001F068FEC42001F065FE48
:103F7000002001F062FECA2001F05FFE002001F087
:103F80005CFED22001F059FE002001F056FED82040
:103F900001F053FE002001F050FEE02001F04DFE44
:103FA000002001F04AFEF32001F047FE002001F05E
:103FB00044FEE22001F04DFE052001F03EFE00200F
:103FC00001F03BFE0B2001F038FE002001F035FE31
:103FD0001B2001F032FE002001F02FFE342001F002
:103FE0002CFE002001F029FE442001F026FE0020D6
:103FF00001F023FE4F2001F020FE002001F01DFE05
:10400000612001F01AFE002001F017FE792001F076
:1040100014FE002001F011FE882001F00EFE0020A9
:1040200001F00BFE972001F008FE002001F005FED4
:10403000A62001F002FE002001F0FFFDB72001F0F4
:10404000FCFD002001F0F9FDC22001F0F6FD00208A
:1040500001F0F3FDC72001F0F0FD002001F0EDFDBF
:10406000D12001F0EAFD002001F0E7FDD62001F0AB
:10407000E4FD002001F0E1FDDD2001F0DEFD002087
:1040800001F0DBFDF32001F0D8FD002001F0D5FDAB
:10409000E32001F0DEFD052001F0CFFD002001F05E
:1040A000CCFD0A2001F0C9FD002001F0C6FD1C2056
:1040B00001F0C3FD002001F0C0FD332000E0FAE272
:1040C00001F0BBFD002001F0B8FD442001F0B5FD7A
:1040D000002001F0B2FD502001F0AFFD002001F002
:1040E000ACFD622001F0A9FD002001F0A6FD7820C2
:1040F00001F0A3FD002001F0A0FD882001F09DFD4E
:10410000002001F09AFD972001F097FD002001F0BA
:1041100094FDA62001F091FD002001F08EFDB72056
:1041200001F08BFD002001F088FDC22001F085FD2B
:10413000002001F082FDC72001F07FFD002001F08A
:104140007CFDD12001F079FD002001F076FDD52025
:1041500001F073FD002001F070FDDD2001F06DFD28
:10416000002001F06AFDF32001F067FD002001F05E
:1041700064FDE42001F06DFD012001F05EFD0020F2
:1041800001F05BFD012001F058FD002001F055FD1C
:10419000022001F052FD002001F04FFD2A2001F025
:1041A0004CFD002001F049FD3C2001F046FD0020BF
:1041B00001F043FD4B2001F040FD002001F03DFDEA
:1041C0005D2001F03AFD002001F037FD742001F080
:1041D00034FD002001F031FD842001F02EFD00208F
:1041E00001F02BFD932001F028FD002001F025FDBA
:1041F000A22001F022FD002001F01FFDB32001F0FC
:104200001CFD002001F019FDBE2001F016FD00206C
:1042100001F013FDC42001F010FD002001F00DFDA0
:10422000CD2001F00AFD002001F007FDD32001F0B0
:1042300004FD002001F001FDDD2001F0FEFC002066
:1042400001F0FBFCF32001F0F8FC002001F0F5FC8C
:10425000E52001F0FEFC002001F0EFFC002001F061
:10426000ECFC002001F0E9FC002001F0E6FC02205B
:1042700001F0E3FC002001F0E0FC292001F0DDFC6E
:10428000002001F0DAFC3C2001F0D7FC002001F016
:10429000D4FC4B2001F0D1FC002001F0CEFC5D20CD
:1042A00001F0CBFC002001F0C8FC742001F0C5FC3B
:1042B000002001F0C2FC842001F0BFFC002001F0CE
:1042C000BCFC932001F0B9FC002001F0B6FCA22058
:1042D00001F0B3FC002001F0B0FCB32001F0ADFC14
:1042E000002001F0AAFCBE2001F0A7FC002001F094
:1042F000A4FCC42001F0A1FC002001F09EFCCD2014
:1043000001F09BFC002001F098FCD32001F095FC0B
:10431000002001F092FCDC2001F08FFC002001F075
:104320008CFCF32001F089FC002001F086FCE620E3
:1043300001F08FFC112001F080FC002001F07DFCD9
:10434000342001F07AFC002001F077FC562001F0C7
:1043500074FC002001F071FC762001F06EFC00205E
:1043600001F06BFC772001F068FC002001F065FC97
:10437000662001F062FC002001F05FFC882001F063
:104380005CFC002001F059FC992001F056FC002053
:1043900001F053FCBB2001F050FC002001F04DFC6B
:1043A000992001F04AFC002001F047FC662001F052
:1043B00044FC002001F041FC552001F03EFC0020AF
:1043C00001F03BFC552001F038FC002001F035FCE9
:1043D000452001F032FC002001F02FFC432001F0C9
:1043E0002CFC002001F029FC442001F026FC0020D8
:1043F00001F023FCE72001F02CFC322001F01DFC31
:10440000002001F01AFC552001F017FC002001F0FB
:1044100014FC762001F011FC002001F00EFC662057
:1044200001F00BFC002001F008FC672001F005FC06
:10443000002001F002FC672001F0FFFB002001F0EA
:10444000FCFB872001F0F9FB002001F0F6FB99202E
:1044500001F0F3FB002001F0F0FBBB2001F0EDFBCD
:10446000002001F0EAFB992001F0E7FB002001F0B9
:10447000E4FB772001F0E1FB002001F0DEFB4420AB
:1044800001F0DBFB002001F0D8FB562001F0D5FB4A
:10449000002001F0D2FB232001F0CFFB002001F02F
:1044A000CCFB332001F0C9FB002001F0C6FB452006
:1044B00001F0C3FB002001F0C0FBE82001F0C9FBC4
:1044C000002001F0BAFB002001F0B7FB992001F0B9
:1044D000B4FB002001F0B1FB872001F0AEFB00200F
:1044E00001F0ABFB882001F0A8FB002001F0A5FB48
:1044F000772001F0A2FB002001F09FFB662001F075
:104500009CFB002001F099FB882001F096FB002025
:1045100001F093FBAA2001F090FB002001F08DFB3D
:10452000BB2001F08AFB002001F087FB992001F0FD
:1045300084FB002001F081FB662001F07EFB00205F
:1045400001F07BFB552001F078FB002001F075FBAA
:10455000552001F072FB002001F06FFB442001F0B8
:104560006CFB002001F069FB442001F066FB002099
:1045700001F063FB552001F060FB002001F05DFBC2
:10458000E92001F066FBAA2001F057FB002001F0B2
:1045900054FB002001F051FB002001F04EFB0020F5
:1045A00001F057FBAA2001F048FBCF2001F051FB9E
:1045B000002001F042FB002001F03FFB002001F051
:1045C0003CFB002001F039FB002001F036FB00200D
:1045D00001F033FB002001F030FB002001F02DFB47
:1045E000002001F02AFB002001F027FB002001F051
:1045F00024FB002001F021FB002001F01EFB002025
:1046000001F01BFB002001F018FB002001F015FB5E
:10461000002001F012FBF02001F01BFB002001F054
:104620000CFB502001F009FB002001F006FB0020EC
:1046300001F003FB002001F000FBF32001F009FB77
:10464000002001F0FAFAF92001F003FB062001F046
:10465000F4FA102001F0F1FA292001F0EEFA00201E
:1046600001F0EBFA3A2001F0F4FA552001F0E5FAF6
:10467000112001F0EEFA642002F07EFA292001F008
:10468000E8FA352001F0E5FA002001F0D6FA5120D1
:1046900001F0DFFAFF2001F0D0FA532001F0D9FA3F
:1046A0002C2001F0CAFA552001F0D3FA822001F043
:1046B000C4FA2C20FDE3B0427ED155214FF4704066
:1046C00001F0DEFAAA214FF2010001F0D9FA5221DD
:1046D0004FF2020001F0D4FA08214FF2030001F07A
:1046E000CFFA4FF204030121184601F0C9FA0D2157
:1046F0004FF4304001F0C4FA0D214BF2010001F0FB
:10470000BFFA0D214BF2020001F0BAFA34214FF446
:10471000364001F0B5FA34214BF2016001F0B0FAF5
:1047200034214BF2026001F0ABFA0D214FF431401D
:1047300001F0A6FA0D214BF2011001F0A1FA0D21B2
:104740004BF2021001F09CFA34214FF4374001F093
:1047500097FA34214BF2017001F092FA34214BF2B6
:10476000027001F08DFA00214FF4324001F088FA16
:1047700000214BF2012001F083FA00214BF20220CC
:1047800001F07EFA24214FF4384001F079FA242117
:104790004BF6010001F074FA24214BF6020001F0FF
:1047A0006FFA01214FF43F4001F06AFA0F214FF4F4
:1047B000334001F065FA00E0FEE30F214BF20130D7
:1047C00001F05EFA0F214BF2023001F059FA342168
:1047D0004FF4394001F054FA34214BF6011001F046
:1047E0004FFA34214BF6021001F04AFA08214FF437
:1047F000354001F045FA08214BF2015001F040FA32
:1048000008214BF2025001F03BFA03214FF44240E1
:1048100001F036FA24214FF43A4001F031FA242114
:104820004BF6012001F02CFA24214BF6022001F076
:1048300027FA00214FF43C4001F022FA78214BF690
:10484000014001F01DFA00214BF6024001F018FA78
:1048500000214FF43D4001F013FA78214BF601504E
:1048600001F00EFA00214BF6025001F009FA002186
:104870004FF43E4001F004FA64214BF6016001F070
:10488000FFF900214FF4514001F0FAF933214DF2C4
:10489000011001F0F5F900214DF2021001F0F0F9DC
:1048A00034214DF2031001F0EBF900214DF2041018
:1048B00001F0E6F93A214DF2051001F0E1F900218D
:1048C0004DF2061001F0DCF94A214DF2071001F01B
:1048D000D7F900214DF2081001F0D2F95C214DF218
:1048E000091001F0CDF900214DF20A1001F0C8F9CC
:1048F00081214DF20B1001F0C3F900214DF20C1093
:1049000001F0BEF9A6214DF20D1001F0B9F9002118
:104910004DF20E1001F0B4F9E5214DF20F1001F047
:10492000AFF901214DF2101001F0AAF913214DF257
:10493000111001F0A5F901214DF2121001F0A0F9BA
:1049400054214DF2131001F09BF901214DF2141086
:1049500001F096F982214DF2151001F091F9012133
:104960004DF2161001F08CF9CA214DF2171001F02A
:1049700087F902214DF2181001F082F900214DF261
:10498000191001F07DF902214DF21A1001F078F9A9
:1049900001214DF21B1001F073F902214DF21C10A0
:1049A00001F06EF934214DF21D1001F069F9022178
:1049B0004DF21E1001F064F967214DF21F1001F055
:1049C0005FF902214DF2201001F05AF984214DF2D5
:1049D000211001F055F902214DF2221001F050F999
:1049E000A4214DF2231001F04BF902214DF22410C5
:1049F00001F046F9B7214DF2251001F041F90221ED
:104A00004DF2261001F03CF9CF214DF2271001F0B4
:104A100037F902214DF2281001F032F9DE214DF272
:104A2000291001F02DF902214DF22A1001F028F988
:104A3000F2214DF22B1001F023F902214DF22C103E
:104A400001F01EF9FE214DF22D1001F019F903219C
:104A50004DF22E1001F014F910214DF22F1001F03B
:104A60000FF903214DF2301001F00AF933214DF214
:104A7000311001F005F903214DF2321001F000F977
:104A80006D214DF2331001F0FBF800214FF452403C
:104A900001F0F6F833214DF2012001F0F1F8002188
:104AA0004DF2022001F0ECF834214DF2032001F028
:104AB000E7F800214DF2042001F0E2F83A214DF22E
:104AC000052001F0DDF800214DF2062001F0D8F8B4
:104AD0004A214DF2072001F0D3F800214DF20820C1
:104AE00001F0CEF85C214DF2092001F0C9F8002157
:104AF0004DF20A2001F0C4F881214DF20B2001F0A3
:104B0000BFF800214DF20C2001F0BAF8A6214DF2B9
:104B10000D2001F0B5F800214DF20E2001F0B0F8A3
:104B2000E5214DF20F2001F0ABF801214DF21020EC
:104B300001F0A6F813214DF2112001F0A1F8012196
:104B40004DF2122001F09CF854214DF2132001F097
:104B500097F801214DF2142001F092F882214DF2D4
:104B6000152001F08DF801214DF2162001F088F892
:104B7000CA214DF2172001F083F802214DF21820CE
:104B800001F07EF800214DF2192001F079F80221A0
:104B90004DF21A2001F074F801214DF21B2001F0B2
:104BA0006FF802214DF21C2001F06AF834214DF219
:104BB0001D2001F065F802214DF21E2001F060F881
:104BC00067214DF21F2001F05BF802214DF22020F9
:104BD00001F056F884214DF2212001F051F8022114
:104BE0004DF2222001F04CF8A4214DF2232001F0D7
:104BF00047F802214DF2242001F042F8B7214DF28E
:104C0000252001F03DF802214DF2262001F038F870
:104C1000CF214DF2272001F033F802214DF2282058
:104C200001F02EF8DE214DF2292001F029F80221B1
:104C30004DF22A2001F024F8F2214DF22B2001F050
:104C40001FF802214DF22C2001F01AF8FE214DF23E
:104C50002D2001F015F803214DF22E2001F010F85F
:104C600010214DF22F2001F00BF803214DF23020DE
:104C700001F006F833214DF2312001F001F8032153
:104C80004DF2322000F0FCFF6D214DF2332000F098
:104C9000F7FF00214FF4534000F0F2FF33214DF2B3
:104CA000013000F0EDFF00214DF2023000F0E8FF8E
:104CB00034214DF2033000F0E3FF00214DF20430C7
:104CC00000F0DEFF3A214DF2053000F0D9FF00215F
:104CD0004DF2063000F0D4FF4A214DF2073000F0CB
:104CE000CFFF00214DF2083000F0CAFF5C214DF2E9
:104CF000093000F0C5FF00214DF20A3000F0C0FF7E
:104D000081214DF20B3000F0BBFF00214DF20C3041
:104D100000F0B6FFA6214DF20D3000F0B1FF0021EA
:104D20004DF20E3000F0ACFFE5214DF20F3000F0F7
:104D3000A7FF01214DF2103000F0A2FF13214DF228
:104D4000113000F09DFF01214DF2123000F098FF6C
:104D500054214DF2133000F093FF01214DF2143035
:104D600000F08EFF82214DF2153000F089FF012105
:104D70004DF2163000F084FFCA214DF2173000F0DA
:104D80007FFF02214DF2183000F07AFF00214DF232
:104D9000193000F075FF02214DF21A3000F070FF5B
:104DA00001214DF21B3000F06BFF02214DF21C304F
:104DB00000F066FF34214DF21D3000F061FF02214A
:104DC0004DF21E3000F05CFF67214DF21F3000F005
:104DD00057FF02214DF2203000F052FF84214DF2A6
:104DE000213000F04DFF02214DF2223000F048FF4B
:104DF000A4214DF2233000F043FF02214DF2243074
:104E000000F03EFFB7214DF2253000F039FF0221BE
:104E10004DF2263000F034FFCF214DF2273000F064
:104E20002FFF02214DF2283000F02AFFDE214DF243
:104E3000293000F025FF02214DF22A3000F020FF3A
:104E4000F2214DF22B3000F01BFF02214DF22C30ED
:104E500000F016FFFE214DF22D3000F011FF03216E
:104E60004DF22E3000F00CFF10214DF22F3000F0EB
:104E700007FF03214DF2303000F002FF33214DF2E5
:104E8000313000F0FDFE03214DF2323000F0F8FE2B
:104E90006D214DF2333000F0F3FE00214FF4544009
:104EA00000F0EEFE33214DF2014000F0E9FE00215A
:104EB00000E082E34DF2024000F0E2FE34214DF2C8
:104EC000034000F0DDFE00214DF2044000F0D8FE6A
:104ED0003A214DF2054000F0D3FE00214DF206408C
:104EE00000F0CEFE4A214DF2074000F0C9FE00213D
:104EF0004DF2084000F0C4FE5C214DF2094000F084
:104F0000BFFE00214DF20A4000F0BAFE81214DF2B1
:104F10000B4000F0B5FE00214DF20C4000F0B0FE59
:104F2000A6214DF20D4000F0ABFE00214DF20E40E7
:104F300000F0A6FEE5214DF20F4000F0A1FE012198
:104F40004DF2104000F09CFE13214DF2114000F094
:104F500097FE01214DF2124000F092FE54214DF2D5
:104F6000134000F08DFE01214DF2144000F088FE48
:104F700082214DF2154000F083FE01214DF21640D2
:104F800000F07EFECA214DF2174000F079FE0221AA
:104F90004DF2184000F074FE00214DF2194000F06F
:104FA0006FFE02214DF21A4000F06AFE01214DF21F
:104FB0001B4000F065FE00E002E302214DF21C40C0
:104FC00000F05EFE34214DF21D4000F059FE02213A
:104FD0004DF21E4000F054FE67214DF21F4000F0DC
:104FE0004FFE02214DF2204000F04AFE84214DF296
:104FF000214000F045FE02214DF2224000F040FE2B
:10500000A4214DF2234000F03BFE02214DF224404A
:1050100000F036FEB7214DF2254000F031FE0221AE
:105020004DF2264000F02CFECF214DF2274000F03B
:1050300027FE02214DF2284000F022FEDE214DF233
:10504000294000F01DFE02214DF22A4000F018FE1A
:10505000F2214DF22B4000F013FE02214DF22C40C4
:1050600000F00EFEFE214DF22D4000F009FE03215E
:105070004DF22E4000F004FE10214DF22F4000F0C2
:10508000FFFD03214DF2304000F0FAFD33214DF2D7
:10509000314000F0F5FD03214DF2324000F0F0FD0B
:1050A0006D214DF2334000F0EBFD00214FF45540EF
:1050B00000F0E6FD33214DF2015000F0E1FD00214A
:1050C0004DF2025000F0DCFD34214DF2035000F0AF
:1050D000D7FD00214DF2045000F0D2FD3A214DF2EF
:1050E000055000F0CDFD00214DF2065000F0C8FD46
:1050F0004A214DF2075000F0C3FD00214DF2085047
:1051000000F0BEFD5C214DF2095000F0B9FD002118
:105110004DF20A5000F0B4FD81214DF20B5000F029
:10512000AFFD00214DF20C5000F0AAFDA6214DF27A
:105130000D5000F0A5FD00214DF20E5000F0A0FD35
:10514000E5214DF20F5000F09BFD01214DF2105072
:1051500000F096FD13214DF2115000F091FD012158
:105160004DF2125000F08CFD54214DF2135000F01E
:1051700087FD01214DF2145000F082FD82214DF295
:10518000155000F07DFD01214DF2165000F078FD24
:10519000CA214DF2175000F073FD02214DF2185054
:1051A00000F06EFD00214DF2195000F069FD022162
:1051B0004DF21A5000F064FD01214DF21B5000F039
:1051C0005FFD02214DF21C5000F05AFD34214DF2DA
:1051D0001D5000F055FD02214DF21E5000F050FD13
:1051E00067214DF21F5000F04BFD02214DF220507F
:1051F00000F046FD84214DF2215000F041FD0221D6
:105200004DF2225000F03CFDA4214DF2235000F05D
:1052100037FD02214DF2245000F032FDB7214DF24E
:10522000255000F02DFD02214DF2265000F028FD02
:10523000CF214DF2275000F023FD02214DF22850DE
:1052400000F01EFDDE214DF2295000F019FD022173
:105250004DF22A5000F014FDF2214DF22B5000F0D7
:105260000FFD02214DF22C5000F00AFDFE214DF2FF
:105270002D5000F005FD03214DF22E5000F000FDF1
:1052800010214DF22F5000F0FBFC03214DF2305065
:1052900000F0F6FC33214DF2315000F0F1FC032117
:1052A0004DF2325000F0ECFC6D214DF2335000F025
:1052B000E7FC00214FF4564000F0E2FC33214DF2B0
:1052C000016000F0DDFC00214DF2026000F0D8FC2E
:1052D00034214DF2036000F0D3FC00214DF2046054
:1052E00000F0CEFC3A214DF2056000F0C9FC00212F
:1052F0004DF2066000F0C4FC4A214DF2076000F058
:10530000BFFC00214DF2086000F0BAFC5C214DF2B8
:10531000096000F0B5FC00214DF20A6000F0B0FC1D
:1053200081214DF20B6000F0ABFC00214DF20C60CE
:1053300000F0A6FCA6214DF20D6000F0A1FC0021BA
:105340004DF20E6000F09CFCE5214DF20F6000F084
:1053500097FC01214DF2106000F092FC13214DF2F8
:10536000116000F08DFC01214DF2126000F088FC0C
:1053700054214DF2136000F083FC01214DF21460C2
:1053800000F07EFC82214DF2156000F079FC0121D5
:105390004DF2166000F074FCCA214DF2176000F067
:1053A0006FFC02214DF2186000F06AFC00214DF202
:1053B000196000F065FC02214DF21A6000F060FCFB
:1053C00001214DF21B6000F05BFC02214DF21C60DC
:1053D00000F056FC34214DF21D6000F051FC02211A
:1053E0004DF21E6000F04CFC67214DF21F6000F092
:1053F00047FC02214DF2206000F042FC84214DF276
:10540000216000F03DFC02214DF2226000F038FCEA
:10541000A4214DF2236000F033FC02214DF2246000
:1054200000F02EFCB7214DF2256000F029FC02218E
:105430004DF2266000F024FCCF214DF2276000F0F1
:105440001FFC02214DF2286000F01AFCDE214DF213
:10545000296000F015FC02214DF22A6000F010FCDA
:10546000F2214DF22B6000F00BFC02214DF22C607A
:1054700000F006FCFE214DF22D6000F001FC03213E
:105480004DF22E6000F0FCFB10214DF22F6000F079
:10549000F7FB03214DF2306000F0F2FB33214DF2B7
:1054A000316000F0EDFB03214DF2326000F0E8FBCB
:1054B0006D214DF2336000F0E3FB55214FF4704055
:1054C00000F0DEFBAA214FF2010000F0D9FB5221CF
:1054D0004FF2020000F0D4FB08214FF2030000F06D
:1054E000CFFB0021184600F0CBFBCC214FF431401C
:1054F00000F0C6FB00214BF2011000F0C1FB0521BA
:105500004FF4364000F0BCFB70214FF4374000F000
:10551000B7FB70214BF2017000F0B2FB01214FF498
:10552000384000F0ADFB03214BF6010000F0A8FB72
:1055300003214BF6020000F0A3FB03214BF603000E
:1055400000F09EFB02214FF43C4000F099FB00214B
:105550004BF6014000F094FB00214BF6024000F0B6
:105560008FFBD0214FF4494000F08AFB02214CF61A
:10557000011000F085FB50214CF6021000F080FB7A
:1055800050214CF6031000F07BFB50214CF6041028
:1055900000F076FB00214FF4545000F071FB5521D0
:1055A0004FF4685000F06CFB4FF4885000F051FB52
:1055B000782001F0E3FA4FF4245000F04AFBB9E000
:1055C0004845FCD1E22000F044FB1D2000F035FBF3
:1055D000022000F032FB042000F02FFB642001F0D9
:1055E000CDFAE02000F035FB012000F026FB0A2078
:1055F00001F0C2FAE02000F02CFB032000F01DFBBC
:105600000C2001F0B9FA012000F023FB0A2001F080
:10561000B3FAE62000F01DFB2F2000F00EFBFF2068
:1056200000F00BFBFF2000F008FBB02000F011FBA6
:10563000202000F002FB002000F0FFFA032000F021
:10564000FCFA40F21F3000F0F8FA012000F0F5FA01
:1056500040F2DF1000F0F1FA002000F0EEFAB42082
:1056600000F0F7FA042000F0E8FA40F21F4000F0E2
:10567000E4FA002000F0E1FA2E2000F0DEFA00202B
:1056800000F0DBFA002000F0D8FA002000F0D5FA94
:10569000002000F0D2FAB62000F0DBFA022000F081
:1056A000CCFA4FF4037000F0C8FA002000F0C5FAFD
:1056B000172000F0C2FA152000F0BFFA002000F019
:1056C000BCFA002000F0B9FAF02000F0C2FA032082
:1056D00000F0B3FA292000F0BCFAD02000F0B9FAAB
:1056E000002000F0AAFABE2000F0B3FA052000F076
:1056F000A4FAFE2000F0A1FA012000F09EFA00209A
:1057000000F09BFA002000F098FA002000F095FAD3
:10571000B82000F09EFA032000F08FFA012000F07C
:105720008CFABA2000F095FA012000F086FA642085
:1057300000F04AF8A188B94207D0A94205D04145F6
:1057400003D0B14201D049451DD1DAF81C215046A1
:1057500022F00F02CAF81C21DAF81C2122F4706230
:10576000CAF81C21DAF81C2142F00302CAF81C21F5
:10577000A942DAF81C1102D141F4407101E041F470
:105780000071C0F81C110020FDF7D4FB0449012072
:10579000C1F8BC025846FDF7B3FB15B0BDE8F08F69
:1057A000008040420246012000E05043491EC9B239
:1057B000FBD2704708B54FF0D840B0F88000ADF884
:1057C0000000BDF8000008BD10B50246BE2000F084
:1057D00040FA052000F031FA104601F076FC9FED0A
:1057E0000C1B53EC112B01F0BFFC01F041FC80B20B
:1057F00000F023FA012000F020FAFF2000F01DFA4B
:10580000002000F01AFABDE81040002000F015BAA0
:10581000666666666666044070B55E4C0023214687
:10582000A279898841F66316012A01D01AB10CE0E9
:10583000B14202D109E0B14207D1082805D2DFE820
:1058400000F0161812140C19100E082812D2DFE8F6
:1058500000F0110406080A0C0E1080230AE0402311
:1058600008E0C02306E0202304E0602302E0A02338
:1058700000E0E02345F21055A94202D14FF4585000
:1058800000E03620A1F51342413A03D0A1F5EE42E3
:10589000893A01D143F00803194600F0F1F9A188D3
:1058A000B1420AD098062088628802D5904202D37D
:1058B00003E0904201D9228060806089A94240D1F2
:1058C00000F0C7F9002000F0B8F96089401C80B2F0
:1058D00000F0BFF9002000F0B0F96089801C80B2B0
:1058E00000F0B7F92088401EC0F30F2000F0A5F9A2
:1058F0006089C01C80B200F0ACF92078401EC0B2B4
:1059000000F09BF9A08900F0A4F9002000F095F9BF
:10591000A089401C80B200F09CF9002000F08DF9B5
:10592000A089801C80B200F094F96088401EC0F30A
:105930000F2000F082F9A089C01C80B200F089F924
:1059400021E000F086F9002000F077F9002000F057
:1059500074F92088401EC0F30F2000F06EF9207803
:10596000401EC0B200F069F9A08900F072F9002071
:1059700000F063F9002000F060F96088401EC0F379
:105980000F2000F05AF9A078BDE87040401EC0B268
:1059900000F053B92C070120F0B53B4A0D460446F0
:1059A000060A918810462F0A4089A1F5C853633B27
:1059B00016D0A1F5AA43103B4CD000F04AF930466E
:1059C00000F03BF9E0B200F038F9908900F041F9BD
:1059D000384600F032F9E8B2BDE8F04000F02DB9E9
:1059E000917931B300F035F9304600F026F9E0B294
:1059F00000F023F91088401EC0F30F2000F01DF9BD
:105A00001078401E5FFA80F000F017F9908900F0DE
:105A100020F9384600F011F9E8B200F00EF950888C
:105A2000401EC0F30F2000F008F99078401EC0B26D
:105A3000D2E71188091B491E8CB200F00AF9002038
:105A400000F0FBF8002000F0F8F8200A00F0F5F86C
:105A5000E0B2D9E700F0FDF8304600F0EEF85089EA
:105A6000401C80B200F0F5F8E0B200F0E6F8908952
:105A700000F0EFF8384600F0E0F89089401C80B262
:105A800000F0E7F8A7E700002C0701202DE9FF4F01
:105A90001D460C468A46580700D0012000EBD50071
:105AA000690810FB01F0203A00F0FF09D0B200268F
:105AB000DFF8A4B002904BE00C2D11D0102D14D0C3
:105AC000182D17D0202D45D12449029801EBC01084
:105AD0004FF00008875D380613D52148026814E0AE
